S01700004763634170706C69636174696F6E372E7372656355
S11300000C9448000C945D000C945D000C945D000D
S11300100C945D000C945D000C945D000C945D00E8
S11300200C945D000C945D000C945D000C945D00D8
S11300300C945D000C945D000C945D000C945D00C8
S11300400C945D000C945D000C945D000C945D00B8
S11300500C945D000C945D000C945D000C94950070
S11300600C945D000C945D000C945D000C945D0098
S11300700C945D000C945D000C945D000C945D0088
S11300800C945D000C945D000C945D000C945D0078
S113009011241FBECFEFCDBFDFE3DEBF18E2A0E027
S11300A0B8E2E0E9F1E002C005900D92A230B10798
S11300B0D9F70E945F000C94C6000C940000E0E69F
S11300C0F4E0808181608083848181608483808185
S11300D08460808384E08683E0E0F6E0808180832E
S11300E08081826080838081816080838681876053
S11300F08683848581608487828993898560828BE5
S1130100938B8285826082878481816084837894E2
S11301108085816080878091002890910128892BB7
S113012009F0FFCF81E090E008951F920F920FB67F
S11301300F9211248F939F93EF93FF93E0E0F6E0E7
S113014083858387E0E6F4E084818460848381E0AE
S1130150868383EF91E00197F1F700C0000084816A
S11301608160848384E086838091002890910128B3
S1130170C2978093002890930128FF91EF919F915B
S11301808F910F900FBE0F901F901895F894FFCF8A
S1050190C800A1
S9030000FC
