S01700004763634170706C69636174696F6E382E7372656354
S11300000C9448000C9465000C9465000C946500F5
S11300100C9465000C9465000C9465000C946500C8
S11300200C9465000C9465000C9465000C946500B8
S11300300C9465000C9465000C9465000C946500A8
S11300400C9465000C9465000C9465000C94650098
S11300500C9465000C9465000C9465000C94F000FD
S11300600C9465000C9465000C9465000C94650078
S11300700C9465000C94AE000C9465000C9465001F
S11300800C9465000C9465000C9465000C94650058
S113009011241FBECFEFCDBFDFE3DEBF18E2A0E027
S11300A0B8E2E4E8F2E002C005900D92A230B10794
S11300B0D9F728E2A2E0B8E201C01D92A630B20747
S11300C0E1F70E9467000C9440010C940000E0E604
S11300D0F4E0808181608083848181608483808175
S11300E08260808384818260848380818460808351
S11300F084E08683E0E0F6E0808180838081826012
S11301008083808181608083868187608683848503
S113011081608487828993898560828B938B8285B1
S113012082608287848181608483A0EAB4E05596EA
S11301308C915597896055968C93789480858160CD
S1130140808703C084E080936604809100289091A6
S11301500128892BB9F780E090E008951F920F924F
S11301600FB60F9211248F939F93EF93FF93E0EABE
S1130170F4E08185818781E090E080930228909368
S11301800328FF91EF919F918F910F900FBE0F90D5
S11301901F901895E0E6F4E084818460848381E014
S11301A0868383EF91E00197F1F700C0000084811A
S11301B08160848384E086830895E0E6F4E08481AA
S11301C08460848382E0868383EF91E00197F1F772
S11301D000C0000084818260848384E08683089563
S11301E01F920F920FB60F9211242F933F934F93A8
S11301F05F936F937F938F939F93AF93BF93EF938B
S1130200FF93E0E0F6E08385838780910428909152
S11302100528019680930428909305288130910540
S113022061F08430910549F08530910531F08630D4
S1130230910519F08730910519F40E94CA0005C090
S11302400297029710F40E94DD0080910428909197
S11302500528079724F01092002810920128FF9196
S1130260EF91BF91AF919F918F917F916F915F912A
S11302704F913F912F910F900FBE0F901F901895A3
S1070280F894FFCF1C
S1050284010073
S9030000FC
