S01100004578657263697365332E73726563A8
S11300000C9448000C945D000C945D000C945D000D
S11300100C945D000C945D000C945D000C94E40061
S11300200C945D000C94FE000C945D000C945D0037
S11300300C945D000C945D000C945D000C945D00C8
S11300400C945D000C945D000C945D000C945D00B8
S11300500C945D000C945D000C945D000C94C10044
S11300600C945D000C945D000C945D000C945D0098
S11300700C945D000C941A010C945D000C945D00CA
S11300800C945D000C945D000C945D000C945D0078
S113009011241FBECFEFCDBFDFE3DEBF18E2A0E027
S11300A0B8E2E6ECF2E002C005900D92A230B1078E
S11300B0D9F70E94A5000C9461010C940000E0E0C3
S11300C0F6E080818083808182608083808181608A
S11300D08083868187608683848581608487828922
S11300E093898560828B938B8285826082878481E9
S11300F081608483789480858160808780910028E2
S113010090910128892BD1F70895E0E0FAE086A3C5
S113011060A747A321A70895CF93DF931092E40526
S1130120C0E0DAE081E08B8381E1898320E430E080
S113013040E450E060E870E080E890E00E948500D0
S113014089E08883DF91CF910895E0E6F4E080812F
S113015087608083848181608483848182608483D6
S1130160848184608483E0EAF4E085898960858BF6
S113017086898960868B0E945F000E948C00789437
S1130180FFCF1F920F920FB60F9211248F939F935C
S1130190EF93FF93E0E0F6E08385838784E0809328
S11301A0660489EF90E00197F1F700C00000109217
S11301B0002810920128FF91EF919F918F910F9049
S11301C00FBE0F901F9018951F920F920FB60F92AB
S11301D011248F93EF93FF93E0E0FAE08385838704
S11301E0E0E6F4E081E0868382E08683FF91EF918C
S11301F08F910F900FBE0F901F9018951F920F9222
S11302000FB60F9211248F93EF93FF93E0E0FAE07F
S113021083858387E0E6F4E084818160848384813C
S113022082608483FF91EF918F910F900FBE0F90A6
S11302301F9018951F920F920FB60F9211242F93AF
S11302403F934F935F936F937F938F939F93AF935A
S1130250BF93EF93FF938091A904E0E6F4E09481C7
S11302609460948390E0009759F020E430E040E2F9
S113027050E060E870E080E490E00E9485000CC0EB
S1130280892B51F020E230E040E450E060E470E07B
S113029080E890E00E9485001092002810920128C6
S11302A0FF91EF91BF91AF919F918F917F916F914A
S11302B05F914F913F912F910F900FBE0F901F9020
S10902C01895F894FFCF2D
S10502C6010031
S9030000FC
