:100000000C9448000C945A000C945A000C945A001A
:100010000C945A000C945A000C945A000C945A00F8
:100020000C945A000C9477010C945A000C945A00CA
:100030000C94DE010C945A000C945A000C945A0053
:100040000C945A000C945A000C945A000C945A00C8
:100050000C945A000C945A000C945A000C94B5015C
:100060000C945A000C945A000C945A000C945A00A8
:100070000C945A000C94F9000C945A000C945A00F9
:100080000C945A000C945A000C945A000C945A0088
:1000900011241FBECFEFCDBFDFE3DEBF28E2A0E01B
:1000A000B8E201C01D92AE30B207E1F70E94CA006B
:1000B0000C9415020C94000010920A2810920B2840
:1000C000789480910A2890910B28892BD1F3E0E055
:1000D000FAE010A211A2118285E090E080A791A71A
:1000E0008EE0808380818160808380E18287E0E090
:1000F000F6E08085816080878091082890910928AA
:10010000892BD1F3F8940895E0E0F6E080818083B4
:100110008081826080838081816080838681876026
:100120008683848581608487828993898A60828BB3
:10013000938B8285826082878481816084837894B6
:100140008085816080878091042890910528892B83
:10015000D1F3F8940895E0E0FAE010A211A2118220
:100160008AE090E080A791A78EE080838081816003
:10017000808380E18287F894E0E0F6E0808581600A
:10018000808778948091022890910328892BD1F35D
:10019000F8940895E0E6F4E08081816080838481B2
:1001A00081608483E0EAF4E085898960858B8689B3
:1001B0008960868B0E945C000E9484000E94AB00D4
:1001C000F9CFE0E8FAE080E290E184879587128633
:1001D00013868081816080838081826080838581B5
:1001E0008160858381818061818381818760818352
:1001F00008951F920F920FB60F9211242F933F93E1
:100200004F935F936F937F938F939F93AF93BF931E
:10021000CF93DF93EF93FF93C091A904D0E0C03454
:10022000D10531F480910C2890910D28892B39F05B
:1002300080910C2890910D288330910551F4809184
:100240000C2890910D28019680930C2890930D28EE
:100250001CC0C032D10519F48130910519F08230EB
:10026000910531F4019680930C2890930D280DC0D0
:1002700010920C2810920D28809106289091072842
:1002800001968093062890930728809106289091E4
:100290000728039719F40E94E10014C080910C28EC
:1002A00090910D28049771F410920C2810920D284B
:1002B00081E090E0809302289093032880930A289D
:1002C00090930B28C093A904FF91EF91DF91CF91F8
:1002D000BF91AF919F918F917F916F915F914F915E
:1002E0003F912F910F900FBE0F901F9018951F9266
:1002F0000F920FB60F9211242F933F934F935F935A
:100300006F937F938F939F93AF93BF93EF93FF93DD
:10031000E0E0FAE08385838780910A2890910B289A
:100320008130910569F41092000A81E090E0809399
:1003300008289093092810920A2810920B2804C0CC
:10034000892B11F40E94E100FF91EF91BF91AF91D1
:100350009F918F917F916F915F914F913F912F91DD
:100360000F900FBE0F901F9018951F920F920FB60F
:100370000F9211248F939F93EF93FF93E0E0F6E0A9
:100380008385838781E090E08093042890930528FB
:10039000109202281092032889EF90E00197F1F75C
:1003A00000C0000081E080936604FF91EF919F916F
:1003B0008F910F900FBE0F901F9018951F920F9264
:1003C0000FB60F9211242F938F939F93EF93FF9368
:1003D00080910C2890910D280497A9F08091002815
:1003E0009091012880FD04C021E02093660405C09F
:1003F000E0E6F4E0248121602483019680930028C4
:100400009093012802C01092800A81E08093860AAE
:1004100080E280932804FF91EF919F918F912F911B
:0E0420000F900FBE0F901F901895F894FFCF0D
:00000001FF
