:100000000C9448000C9465000C9465000C946500F9
:100010000C9465000C9465000C9465000C946500CC
:100020000C9465000C9467000C9465000C946500BA
:100030000C9465000C9465000C9465000C946500AC
:100040000C9465000C9465000C9465000C9465009C
:100050000C9465000C9465000C9465000C94B3003E
:100060000C9465000C9465000C9465000C9465007C
:100070000C9465000C94B5010C9465000C9465001B
:100080000C9465000C9465000C9465000C9465005C
:1000900011241FBECFEFCDBFDFE3DEBF18E2A0E02B
:1000A000B8E2E6EAF3E002C005900D92A230B10793
:1000B000D9F728E2A2E0B8E201C01D92AA30B20747
:1000C000E1F70E944E010C94D1010C9400001F92A4
:1000D0000F920FB60F9211248F939F93EF93FF937C
:1000E000E0E0FAE080818E7F80838385838781E0F2
:1000F00090E08093062890930728FF91EF919F91BD
:100100008F910F900FBE0F901F901895E0E6F4E0CE
:1001100084818460848381E08683E0E0FAE08081EA
:10012000816080838091062890910728892BD1F3E4
:10013000E0E6F4E084818160848384E0868308952E
:10014000E0E6F4E084818460848382E0868383EF48
:1001500091E00197F1F700C0000084818260848300
:1001600084E0868308951F920F920FB60F92112498
:100170002F933F934F935F936F937F938F939F93AF
:10018000AF93BF93EF93FF93E0E0F6E0838583871F
:100190008091022890910328892B09F580910428E9
:1001A000909105288630910564F4809108289091FB
:1001B0000928019680930828909309280E948600B8
:1001C0002EC0449764F180910828909109280196E7
:1001D00080930828909309280E94A00020C0809155
:1001E0000428909105288630910564F480910828B0
:1001F00090910928019780930828909309280E94DC
:10020000A0000DC044975CF08091082890910928C7
:10021000019780930828909309280E948600809176
:100220000828909109280197069720F0109200283D
:1002300010920128FF91EF91BF91AF919F918F9103
:100240007F916F915F914F913F912F910F900FBED2
:100250000F901F901895E0E0F6E010828081808377
:1002600080818160808382E084837894808581604E
:10027000808780899189809304289093052883EF53
:1002800091E00197F1F700C00000808182608083D7
:1002900081E084838485816084870895E0E6F4E0CA
:1002A0008081816080838481816084838081826099
:1002B000808384818260848380818460808384E001
:1002C0008683E0E0F6E080818083808182608083A5
:1002D0008081816080838681876086838485816058
:1002E0008487828993898560828B938B84899589A1
:1002F0008461848B958B8285826082878481816012
:100300008483A0EAB4E055968C9155978960559600
:100310008C93A0E0BAE090961D921C929197119652
:100320001C9211978AE090E098968D939C939997F0
:100330008EE08C9380E11A968C937894808581600E
:10034000808784E08093660489EF90E00197F1F75D
:1003500000C000000E942B0180910028909101288C
:10036000892B79F780E090E008951F920F920FB6E5
:100370000F9211248F939F93EF93FF93E0EAF4E0A1
:100380008185818781E090E0809302289093032803
:10039000FF91EF919F918F910F900FBE0F901F9043
:0603A0001895F894FFCF50
:0203A600010054
:00000001FF
