:100000000C9448000C9465000C9465000C946500F9
:100010000C9465000C9465000C9465000C946500CC
:100020000C9465000C9465000C9465000C946500BC
:100030000C9465000C9465000C9465000C946500AC
:100040000C9465000C9465000C9465000C9465009C
:100050000C9465000C9465000C9465000C94D4001D
:100060000C9465000C9465000C9465000C9465007C
:100070000C9465000C9424010C9465000C946500AC
:100080000C9465000C9465000C9465000C9465005C
:1000900011241FBECFEFCDBFDFE3DEBF18E2A0E02B
:1000A000B8E2E8E8F4E002C005900D92A230B10792
:1000B000D9F728E2A2E0B8E201C01D92A430B2074D
:1000C000E1F70E9467000C9442020C940000E0E605
:1000D000F4E0808181608083848181608483808179
:1000E0008260808384818260848380818460808355
:1000F00084E08683E0E0F6E0808180838081826016
:100100008083808181608083868187608683848507
:1001100081608487828993898560828B938B8285B5
:1001200082608287848181608483A0EAB4E05596EE
:100130008C915597896055968C93789480858160D1
:10014000808703C084E080936604809100289091AA
:100150000128892BB9F780E090E00895E0E6F4E00B
:1001600084818460848381E0868383EF91E00197BA
:10017000F1F700C0000084818160848384E086837D
:100180000895E0E6F4E084818460848382E08683DD
:1001900083EF91E00197F1F700C000008481826055
:1001A000848384E0868308951F920F920FB60F9286
:1001B00011242F933F934F935F936F937F938F936C
:1001C0009F93AF93BF93EF93FF93E0E0F6E08385B7
:1001D00083878091022890910328019680930228BA
:1001E000909303288130910561F08430910549F0A6
:1001F0008530910531F08630910519F087309105F1
:1002000019F40E94AE0005C00297029710F40E94F4
:10021000C1008091022890910328079724F0109242
:10022000002810920128FF91EF91BF91AF919F910B
:100230008F917F916F915F914F913F912F910F908F
:100240000FBE0F901F9018951F920F920FB60F922E
:1002500011242F933F934F935F936F937F938F93CB
:100260009F93AF93BF93EF93FF93E0EAF4E0818510
:10027000818780910228909103288130910591F423
:1002800084E08093660489EF90E00197F1F700C065
:1002900000000E94C10083EF91E00197F1F700C0D8
:1002A0000000DFC082309105D1F484E080936604C1
:1002B00089EF90E00197F1F700C000000E94AE00C6
:1002C00089EF90E00197F1F700C000000E94C100A3
:1002D00083EF91E00197F1F700C00000C2C08330C6
:1002E000910511F584E08093660489EF90E0019711
:1002F000F1F700C000000E94AE0089EF90E0019786
:10030000F1F700C000000E94AE0089EF90E0019775
:10031000F1F700C000000E94C10083EF91E0019757
:10032000F1F700C000009DC08430910551F584E0D4
:100330008093660489EF90E00197F1F700C0000018
:100340000E94C10089EF90E00197F1F700C0000022
:100350000E94AE0089EF90E00197F1F700C0000025
:100360000E94AE0089EF90E00197F1F700C0000015
:100370000E94C10083EF91E00197F1F700C00000F7
:1003800070C08530910591F584E08093660487EE16
:1003900093E00197F1F700C000000E94C10089EFCF
:1003A00090E00197F1F700C000000E94C10089EFC2
:1003B00090E00197F1F700C000000E94AE0089EFC5
:1003C00090E00197F1F700C000000E94AE0089EFB5
:1003D00090E00197F1F700C000000E94C10083EF98
:1003E00091E00197F1F700C000003BC00697C9F506
:1003F00084E08093660481EE94E00197F1F700C0F9
:1004000000000E94C10087EE93E00197F1F700C061
:1004100000000E94C10089EF90E00197F1F700C051
:1004200000000E94C10089EF90E00197F1F700C041
:1004300000000E94AE0089EF90E00197F1F700C044
:1004400000000E94AE0089EF90E00197F1F700C034
:1004500000000E94C10083EF91E00197F1F700C016
:100460000000FF91EF91BF91AF919F918F917F918C
:100470006F915F914F913F912F910F900FBE0F9011
:080480001F901895F894FFCFBE
:02048800010071
:00000001FF
