:100000000C9448000C9465000C9465000C946500F9
:100010000C9465000C9465000C9465000C946500CC
:100020000C9465000C9465000C9465000C946500BC
:100030000C94E6000C9465000C9465000C9465002B
:100040000C9465000C9465000C9465000C9465009C
:100050000C9465000C9465000C9465000C942701C9
:100060000C9465000C9465000C9465000C9465007C
:100070000C9465000C9451010C9465000C9465007F
:100080000C9465000C9465000C9465000C9465005C
:1000900011241FBECFEFCDBFDFE3DEBF18E2A0E02B
:1000A000B8E2EEEFF2E002C005900D92A230B10787
:1000B000D9F728E2A2E0B8E201C01D92A630B2074B
:1000C000E1F70E94C8000C947D010C940000E0E868
:1000D000FAE080E290E1848795871286138680811A
:1000E0008160808380818260808385818160858357
:1000F0008181806181838181876081830895E0E9C6
:10010000FAE080E290E184879587128613868081E9
:1001100081608083808182608083A0E8BAE0159648
:100120008C911597816015968C9381818061818374
:100130008181876081830895E0E0F6E0808180839B
:1001400080818260808380818160808386818760F6
:100150008683848581608487828993898560828B88
:10016000938B828582608287848181608483789486
:1001700080858160808720910028309101288091BE
:1001800002289091032882239323892BA1F70895B5
:10019000E0E6F4E0808187608083848181608483ED
:1001A000848182608483848184608483E0EAF4E0D3
:1001B00085898960858B86898960868B0E949C00F1
:1001C0000E9467000E947F007894FFCF1F920F92D9
:1001D0000FB60F9211242F938F939F93EF93FF935A
:1001E000809104289091052880FD10C021E0209383
:1001F00066042091960A213019F422E020936604C7
:100200000196809304289093052811C0E0E6F4E05D
:100210002481216024832091960A213019F42481BD
:10022000226024830196809304289093052881E01E
:100230008093860A80E280932804FF91EF919F913A
:100240008F912F910F900FBE0F901F9018951F92B6
:100250000F920FB60F9211248F939F93EF93FF93FA
:10026000E0E0F6E08385838784E08093660489EF8D
:1002700090E00197F1F700C00000789481E090E0F1
:10028000809302289093032810920028109201284E
:10029000FF91EF919F918F910F900FBE0F901F9044
:1002A00018951F920F920FB60F9211248F939F9360
:1002B000EF93FF938091A904813039F480E490E2B8
:1002C00080939C0A90939D0A06C080E490E28093FC
:1002D0008C0A90938D0A1092002810920128E0E673
:1002E000F4E0848184608483FF91EF919F918F91EA
:0E02F0000F900FBE0F901F901895F894FFCF3F
:0202FE000100FD
:00000001FF
