:100000000C9448000C9465000C9465000C946500F9
:100010000C9465000C9465000C9465000C946500CC
:100020000C9465000C9405010C9465000C9465001B
:100030000C9465000C9465000C9465000C946500AC
:100040000C9465000C9465000C9465000C9465009C
:100050000C9465000C9465000C9465000C9465008C
:100060000C9465000C9465000C9465000C9465007C
:100070000C9465000C94E9000C9465000C946500E8
:100080000C9465000C9465000C9465000C9465005C
:1000900011241FBECFEFCDBFDFE3DEBF28E2A4E017
:1000A000B8E201C01D92A830B207E1F718E2A0E063
:1000B000B8E2E6E1F4E002C005900D92A430B10789
:1000C000D9F70E9467000C9409020C940000E0E646
:1000D000F4E0808181608083848181608483808179
:1000E0008260808384818260848380818460808355
:1000F00084E08683E0EAF4E085898960858BE0E02E
:10010000FAE010A211A211828EE190E080A791A7DF
:100110008EE08083C0E0D0E0789425C00E949601F4
:100120006AE070E00E942201009729F08530910575
:1001300011F0089779F4E0E6F4E084818460848328
:1001400089EF90E00197F1F700C0000082E086831C
:10015000C1E0D0E0209739F0E0E6F4E084818260ED
:10016000848384E086838091062890910728892BD8
:10017000A9F2E0E6F4E0848184608483A0E0BAE040
:100180008C9181608C9380E11A968C9381E08683B8
:1001900082E0868378948091042890910528892BA9
:1001A000D1F3F8941092042810920528E0E6F4E0C8
:1001B00084818160848310920628109207288481AC
:1001C0008260848384E086831092200A1092210A40
:1001D000A3CF1F920F920FB60F9211248F939F936C
:1001E000EF93FF93E0EAF4E08185818781E090E07E
:1001F0008093062890930728FF91EF919F918F910C
:100200000F900FBE0F901F9018951F920F920FB670
:100210000F9211248F939F93EF93FF93E0E0FAE006
:1002200010828385838781E090E0809304289093F7
:100230000528FF91EF919F918F910F900FBE0F9026
:100240001F90189597FB072E16F4009407D077FDA2
:1002500009D00E94360107FC05D03EF490958195A7
:100260009F4F0895709561957F4F0895AA1BBB1B02
:1002700051E107C0AA1FBB1FA617B70710F0A61BA6
:10028000B70B881F991F5A95A9F780959095BC01C7
:10029000CD0108958F929F92AF92BF92CF92DF923D
:1002A000EF92FF92CF93DF93EC01688179818A818D
:1002B0009B81611571058105910521F464E279ED59
:1002C0008BE597E02DE133EF41E050E00E94A6017D
:1002D00049015A019B01AC01A7EAB1E40E94C501A2
:1002E0006B017C01ACEEB4EFA50194010E94D30137
:1002F000DC01CB018C0D9D1DAE1DBF1DB7FF03C0E2
:100300000197A109B04888839983AA83BB839F770B
:10031000DF91CF91FF90EF90DF90CF90BF90AF90A3
:100320009F908F9008950E944A01089580E098E27E
:100330000E944A010895A0E0B0E0809300289093C5
:100340000128A0930228B09303280895052E97FB57
:100350001EF400940E94BD0157FD07D00E94D801F1
:1003600007FC03D04EF40C94BD0150954095309598
:1003700021953F4F4F4F5F4F089590958095709511
:1003800061957F4F8F4F9F4F08950E94FA01A59F5F
:10039000900DB49F900DA49F800D911D1124089580
:1003A000B7FF0C94C5010E94C501821B930B0895F1
:1003B000A1E21A2EAA1BBB1BFD010DC0AA1FBB1F69
:1003C000EE1FFF1FA217B307E407F50720F0A21BDB
:1003D000B30BE40BF50B661F771F881F991F1A9448
:1003E00069F760957095809590959B01AC01BD0172
:1003F000CF010895A29FB001B39FC001A39F700DCC
:10040000811D1124911DB29F700D811D1124911D1C
:060410000895F894FFCFEF
:0404160001000000E1
:00000001FF
