:100000000C9448000C9465000C9465000C946500F9
:100010000C9465000C9465000C9465000C946500CC
:100020000C9465000C9467000C9465000C946500BA
:100030000C9465000C9465000C9465000C946500AC
:100040000C9465000C9465000C9465000C9465009C
:100050000C9465000C9465000C9465000C94C80029
:100060000C9465000C9465000C9465000C9465007C
:100070000C9465000C9486000C9465000C9465004B
:100080000C9465000C9465000C9465000C9465005C
:1000900011241FBECFEFCDBFDFE3DEBF18E2A0E02B
:1000A000B8E2E6E9F3E002C005900D92A230B10794
:1000B000D9F728E2A2E0B8E201C01D92AA30B20747
:1000C000E1F70E946A010C94C9010C9400001F9290
:1000D0000F920FB60F9211248F939F93EF93FF937C
:1000E000E0E0FAE080818E7F80838385838781E0F2
:1000F00090E08093062890930728FF91EF919F91BD
:100100008F910F900FBE0F901F9018951F920F9216
:100110000FB60F9211248F939F93EF93FF93E0EA12
:10012000F4E08185818781E090E0809302289093BC
:100130000328FF91EF919F918F910F900FBE0F9029
:100140001F901895E0E6F4E084818460848381E068
:10015000868383EF91E00197F1F700C0000084816E
:100160008160848384E086830895E0E6F4E08481FE
:100170008460848382E0868383EF91E00197F1F7C6
:1001800000C0000084818260848384E086830895B7
:100190001F920F920FB60F9211242F933F934F93FC
:1001A0005F936F937F938F939F93AF93BF93EF93DF
:1001B000FF93E0E0F6E083858387809102289091A9
:1001C0000328892B09F58091042890910528863011
:1001D000910564F4809108289091092801968093F4
:1001E0000828909309280E94A2002EC0449764F129
:1001F000809108289091092801968093082890936F
:1002000009280E94B50020C08091042890910528FB
:100210008630910564F4809108289091092801970F
:1002200080930828909309280E94B5000DC0449738
:100230005CF0809108289091092801978093082804
:10024000909309280E94A2001092100610921106A5
:1002500080910828909109280197069720F0109224
:10026000002810920128FF91EF91BF91AF919F91CB
:100270008F917F916F915F914F913F912F910F904F
:100280000FBE0F901F901895E0E0F6E0108280817D
:10029000808380818160808382E0848378948085FC
:1002A00081608087808991898093042890930528B4
:1002B00083EF91E00197F1F700C000008081826038
:1002C000808381E0848384858160848780858160E8
:1002D00080870895E0E6F4E08081816080838481F6
:1002E0008160848380818260808384818260848352
:1002F00080818460808384E08683E0E0F6E0808112
:100300008083808182608083808181608083868118
:1003100087608683848581608487828993898560EC
:10032000828B938B848995898461848B958B82855C
:1003300082608287848181608483E0EAF4E0858939
:100340008960858BE0E0FAE010A211A211828AE0B8
:1003500090E080A791A78EE0808380E182877894E7
:10036000E0E0F6E080858160808784E08093660429
:1003700089EF90E00197F1F700C000000E9444016E
:100380008091002890910128892B49F780E090E026
:060390000895F894FFCF70
:02039600010064
:00000001FF
